:100006007F707E171200187F707E171200187F709F
:020016007E1753
:0A001800EF1F70011E144E70F72256
:10126700E47841F208F21223117F907E0112228066
:1012770012199C7596F0C2B1C2B2C2B32000030224
:101287001436787BE660030214367862E660030260
:10129700131CD2B1C2B2C2B31200147841E4F208EF
:1012A70004F27841E2FE08E2FFC394B0EE940450E2
:1012B70024C2B1120018D2B118E2FE08E2FFC374CB
:1012C700B09FFF74049EFE120018E22401F218E298
:1012D7003400F280CDC2B112000678417404F208DE
:1012E70074AFF27841E2FE08E2FFD39400EE940077
:1012F7004023C2B1120018D2B118E2FE08E2FF740F
:10130700B09FFF74049EFE120018E224FFF218E259
:1013170034FFF280CE7862E6640160030213A9D23B
:10132700B2C2B3C2B11200147841E4F20804F278F1
:1013370041E2FE08E2FFC394B0EE94045024C2B227
:10134700120018D2B218E2FE08E2FFC374B09FFF82
:1013570074049EFE120018E22401F218E23400F22F
:1013670080CDC2B212000678417404F20874AFF25D
:101377007841E2FE08E2FFD39400EE94004023C2D6
:10138700B2120018D2B218E2FE08E2FF74B09FFF53
:1013970074049EFE120018E224FFF218E234FFF2F2
:1013A70080CE7862E66402600302143CD2B3C2B214
:1013B700C2B11200147841E4F20804F27841E2FE67
:1013C70008E2FFC394B0EE94045024C2B31200188D
:1013D700D2B318E2FE08E2FFC374B09FFF74049E05
:1013E700FE120018E22401F218E23400F280CDC2A6
:1013F700B312000678417404F20874AFF27841E240
:10140700FE08E2FFD39400EE94004029C2B3120015
:1014170018D2B318E2FE08E2FF74B09FFF74049E6F
:10142700FE120018E224FFF218E234FFF280CEC267
:10143700B1C2B2C2B37821E66003121C5E20010379
:10144700021283E47800F27800E2FFC394054003B8
:10145700021510746F2FF8E6540FFF1224547F0102
:101467001224547800E225E0241EF8E2FE08E2FF89
:101477007C037DE81210E61224547800E225E0246C
:101487001EF8E2FE08E2FF7C037DE81210E67E000C
:101497007F0ACFCDCFCECCCE1210E61224547800DF
:1014A700E22405F8E275F00A84FF1224547800E27A
:1014B7002405F8E275F00A84AFF01224547800E2AC
:1014C70025E025E0240AF8E2FC08E2FD08E2FE0830
:1014D700E2FFE47B0AFAF9F8122178122454780023
:1014E700E225E025E0240AF8E2FC08E2FD08E2FE36
:1014F70008E2FFE47B0AFAF9F8122178AF03122415
:10150700547800E204F202144EAE0CAF0D7C007D5D
:101517000A1210E6122454AE0CAF0D7C007D0A129D
:0D15270010E6AF051224541223E2021283D5
:1023D10020202020202020202020202020202020FC
:0123E10000FB
:1021FE00056F1424344454057509090909090A6543
:10220E0000000000000000000000016400017B00DF
:0E221E00015F00016300017A10C1000162023D
:0E2413007FC37EEA7D02DDFEDEFADFF600000A
:012421002298
:101D7F007596FE7874A696E654F0F664F06031120C
:101D8F002413E664F06029A696E62482601E24C020
:101D9F00601424E0600A24F07016E4787AF680105C
:101DAF00787A7601800A787A76028004787A7603D8
:101DBF007596FD7874A696E654F0F664F0603112CD
:101DCF002413E664F06029A696E62483601E24C0DF
:101DDF00601424E0600A24F07016787A760480107C
:101DEF00787A7605800A787A76068004787A76078C
:101DFF007596FB7874A696E654F0F664F06031128F
:101E0F002413E664F06029A696E62485601E24C09C
:101E1F00601424E0600A24F07016787A7608801037
:101E2F00787A7609800A787A760A8004787A760B3F
:101E3F007596F77874A696E654F0F664F060311252
:101E4F002413E664F06029A696E62489601E24C058
:101E5F00601424E0600A24F07016787A760C8010F3
:101E6F00787A760D800A787A760E8004787A760FF3
:0C1E7F007F967E00122280787AE6FF2217
:10007E007830EFF26003020137787BE6700C760180
:10008E00785F760112199C12223B787BE664017030
:10009E0054785FE66402704D7864E6640460461836
:1000AE00E6FF2475F8E6B40918EF25E02465F8C0DC
:1000BE0000E6FE08E6FF7C007D0A1210D4D0008018
:1000CE00107860E6FE08E6FF7C007D0A1210D478F8
:1000DE0060A60608A6077864E606FD7F011222CF09
:1000EE007F30122403787BE66403703D785FE6FF71
:1000FE00D3940140347864E6FE6408600AEFB402DB
:10010E0006744A2EF87630EE6408600E785FE6B418
:10011E0003087864E62436F876307864E606FD7FC8
:10012E00011222CF7F301224037830E26401600383
:10013E0002023C787BE670447602785F76011219F3
:10014E009C7D01E4FF1222CF7863E69017D89304CA
:10015E00FF1224037D04E4FF1222CF7863E6246F9E
:10016E00F8E6540F2430FF1224037D07E4FF122219
:10017E00CF7863E62475F8E6FF122403787BE664F5
:10018E00017067785FE6640270607864E66404600C
:10019E005918E62475F8E6B409297863E6FB25E0DC
:1001AE002465F8E6FE08E6FF7C007D0A1210D4EF07
:1001BE002401FFE43EFEEB25E02465F8A60608A622
:1001CE000780187860E6FE08E6FF7C007D0A1210B4
:1001DE00D4EF24017861F6E43E18F67864E606FD65
:1001EE007F011222CF7F31122403787BE6640370E5
:1001FE003D785FE6FFD3940140347864E6FE6408F0
:10020E00600AEFB40206744A2EF87631EE64086086
:10021E000E785FE6B403087864E62436F876317813
:10022E0064E606FD7F011222CF7F3112240378305F
:10023E00E264026003020337787BE6703A76037855
:10024E005F76017F011223F3E4FDFF1222CF7BFFC5
:10025E007A18798A1221C5E4FD7F011222CF7BFF25
:10026E007A18799B1221C5E4FD7F021222CF7BFF03
:10027E007A1879AC1221C5787BE664017067785FD5
:10028E00E6640270607864E66404605918E62475CA
:10029E00F8E6B409297863E6FB25E02465F8E6FE66
:1002AE0008E6FF7C007D0A1210D4EF2402FFE43E24
:1002BE00FEEB25E02465F8A60608A60780187860F0
:1002CE00E6FE08E6FF7C007D0A1210D4EF240278C9
:1002DE0061F6E43E18F67864E606FD7F011222CF41
:1002EE007F32122403787BE66403703D785FE6FF6D
:1002FE00D3940140347864E6FE6408600AEFB402D9
:10030E0006744A2EF87632EE6408600E785FE6B414
:10031E0003087864E62436F876327864E606FD7FC4
:10032E00011222CF7F321224037830E2640360037D
:10033E00020401787BE670097604785F7601121963
:10034E009C787BE664017067785FE6640270607883
:10035E0064E66404605918E62475F8E6B409297851
:10036E0063E6FB25E02465F8E6FE08E6FF7C007DEB
:10037E000A1210D4EF2403FFE43EFEEB25E02465C1
:10038E00F8A60608A60780187860E6FE08E6FF7C49
:10039E00007D0A1210D4EF24037861F6E43E18F6BD
:1003AE007864E606FD7F011222CF7F331224037894
:1003BE007BE66403703D785FE6FFD39401403478AA
:1003CE0064E6FE6408600AEFB40206744A2EF876FC
:1003DE0033EE6408600E785FE6B403087864E624B2
:1003EE0036F876337864E606FD7F011222CF7F332E
:1003FE001224037830E264046003020520787BE661
:10040E00B40112785FE6B4010C7863E6D394004031
:10041E00041612223B787BE664017067785FE6640F
:10042E000270607864E66404605918E62475F8E694
:10043E00B409297863E6FB25E02465F8E6FE08E6B4
:10044E00FF7C007D0A1210D4EF2404FFE43EFEEB85
:10045E0025E02465F8A60608A60780187860E6FE53
:10046E0008E6FF7C007D0A1210D4EF24047861F6B2
:10047E00E43E18F67864E606FD7F011222CF7F3443
:10048E00122403787BE6640270447863E6D394000A
:10049E00403C167D01E4FF1222CF7863E69017D818
:1004AE009304FF1224037D04E4FF1222CF7863E647
:1004BE00246FF8E6540F2430FF1224037D07E4FF67
:1004CE001222CF7863E62475F8E6FF122403787BB8
:1004DE00E66403703D785FE6FFD3940140347864A0
:1004EE00E6FE6408600AEFB40206744A2EF876340B
:1004FE00EE6408600E785FE6B403087864E624368E
:10050E00F876347864E606FD7F011222CF7F34122E
:10051E0024037830E264056003020646787BE6B475
:10052E000112785FE6B4010C7863E6C394045004BC
:10053E000612223B787BE664017067785FE6640200
:10054E0070607864E66404605918E62475F8E6B4C1
:10055E0009297863E6FB25E02465F8E6FE08E6FF48
:10056E007C007D0A1210D4EF2405FFE43EFEEB253D
:10057E00E02465F8A60608A60780187860E6FE084F
:10058E00E6FF7C007D0A1210D4EF24057861F6E4B4
:10059E003E18F67864E606FD7F011222CF7F3512F3
:1005AE002403787BE66402704B785FE66401704446
:1005BE007863E6C39404503C067D01E4FF1222CF1B
:1005CE007863E69017D89304FF1224037D04E4FFAA
:1005DE001222CF7863E6246FF8E6540F2430FF1210
:1005EE0024037D07E4FF1222CF7863E62475F8E634
:1005FE00FF122403787BE66403703D785FE6FFD339
:10060E00940140347864E6FE6408600AEFB4020692
:10061E00744A2EF87635EE6408600E785FE6B40301
:10062E00087864E62436F876357864E606FD7F01B0
:10063E001222CF7F351224037830E2640660030263
:10064E000734787BE66401702B785FE664017024D2
:10065E007863E6FF246FF8E6540F601874752FF870
:10066E00E6640A600F7863E6246FF816E6FF121F41
:10067E00A012223B787BE664017067785FE6640225
:10068E0070607864E66404605918E62475F8E6B480
:10069E0009297863E6FB25E02465F8E6FE08E6FF07
:1006AE007C007D0A1210D4EF2406FFE43EFEEB25FB
:1006BE00E02465F8A60608A60780187860E6FE080E
:1006CE00E6FF7C007D0A1210D4EF24067861F6E472
:1006DE003E18F67864E606FD7F011222CF7F3612B1
:1006EE002403787BE66403703D785FE6FFD39401C4
:1006FE0040347864E6FE6408600AEFB40206744A79
:10070E002EF87636EE6408600E785FE6B40308784D
:10071E0064E62436F876367864E606FD7F0112220A
:10072E00CF7F361224037830E26407600302082478
:10073E00787BE66401702D785FE66401702678633D
:10074E00E6FF246FF8E6540F6404601874752FF8F2
:10075E00E6640A600F7863E6246FF806E6FF121F60
:10076E00A012223B787BE664017067785FE6640234
:10077E0070607864E66404605918E62475F8E6B48F
:10078E0009297863E6FB25E02465F8E6FE08E6FF16
:10079E007C007D0A1210D4EF2407FFE43EFEEB2509
:1007AE00E02465F8A60608A60780187860E6FE081D
:1007BE00E6FF7C007D0A1210D4EF24077861F6E480
:1007CE003E18F67864E606FD7F011222CF7F3712BF
:1007DE002403787BE66403703D785FE6FFD39401D3
:1007EE0040347864E6FE6408600AEFB40206744A88
:1007FE002EF87637EE6408600E785FE6B40308785C
:10080E0064E62436F876377864E606FD7F01122218
:10081E00CF7F371224037830E2640860030208E0C9
:10082E00787BE664017067785FE6640270607864D6
:10083E00E66404605918E62475F8E6B4092978636D
:10084E00E6FB25E02465F8E6FE08E6FF7C007D0A5F
:10085E001210D4EF2408FFE43EFEEB25E02465F8E9
:10086E00A60608A60780187860E6FE08E6FF7C005C
:10087E007D0A1210D4EF24087861F6E43E18F6785B
:10088E0064E606FD7F011222CF7F38122403787BA7
:10089E00E66403703D785FE6FFD3940140347864DC
:1008AE00E6FE6408600AEFB40206744A2EF8763843
:1008BE00EE6408600E785FE6B403087864E62436CA
:1008CE00F876387864E606FD7F011222CF7F381263
:1008DE0024037830E26409600302099C787BE664A5
:1008EE00017067785FE6640270607864E6640460A5
:1008FE005918E62475F8E6B409297863E6FB25E075
:10090E002465F8E6FE08E6FF7C007D0A1210D4EF9F
:10091E002409FFE43EFEEB25E02465F8A60608A6B2
:10092E000780187860E6FE08E6FF7C007D0A12104C
:10093E00D4EF24097861F6E43E18F67864E606FDF5
:10094E007F011222CF7F39122403787BE664037075
:10095E003D785FE6FFD3940140347864E6FE640888
:10096E00600AEFB40206744A2EF87639EE64086017
:10097E000E785FE6B403087864E62436F8763978A4
:10098E0064E606FD7F011222CF7F391224037830F0
:10099E00E2640A6003020B1F787BE66401600302C7
:1009AE000A9E785FE664026003020A9E7864E6643B
:1009BE0004604A18E625E02465F8E4F608F6786047
:1009CE00F608F67864F67F011223F3E4FDFF122297
:1009DE00CF7BFF7A19794D1221C57F507EC312222B
:1009EE00807F507EC31222807F507EC31222807F72
:1009FE00507EC3122280785F7601020A987863E6F1
:100A0E002475F8E6B40916760A7F011223F3785F8F
:100A1E007601E47864F67860F608F6806D7863E621
:100A2E0025E02466F97861E667700418E6196770A8
:100A3E001C7863E6FF2475F87609EF25E02465F847
:100A4E00E4F608F6785F76017864F6803DE4786027
:100A5E00F608F67864F67F011223F3E4FDFF122206
:100A6E00CF7BFF7A19794D1221C57F507EC312229A
:100A7E00807F507EC31222807F507EC31222807FE1
:100A8E00507EC3122280785F760112199C12223B8F
:100A9E00787BE66403707A785FE6FFD39401407149
:100AAE00EFB4020E7864E6D3940340067821760103
:100ABE008042785FE6B4030C7864E6B408067821C9
:100ACE00760280307F011223F3E4FDFF1222CF7BEA
:100ADE00FF7A19794D1221C57F507EC31222807F75
:100AEE00507EC31222807F507EC31222807F507EA2
:100AFE00C3122280E47864F6785F76017F011223B8
:100B0E00F3E4FD7F011222CF7BFF7A1879F91221CF
:100B1E00C57830E2B40B21785FE6D394014019E436
:100B2E00FD7F011222CF7BFF7A2379D11221C5E4FA
:100B3E007864F67860F608F67830E2640C703078F7
:100B4E007BE6FB70147862E62401FFE433FE7C0042
:100B5E007D031210E67862A605EBB40312785FE609
:100B6E00B4010C760212199CE4FD7F011222CF789B
:100B7E0030E2640D7065787BE67048B2003000217B
:100B8E00FD7F031222CF7BFF7A2379D11221C5E498
:100B9E00FD7F031222CF7BFF7A1879251221C580A3
:100BAE0022E4FD7F031222CF7BFF7A2379D112211B
:100BBE00C5E4FD7F031222CF7BFF7A187914122130
:100BCE00C5C200787BE6B40312785FE6B4010C76FA
:100BDE000312199CE4FD7F011222CF7830E2640EDD
:100BEE00702F787BE664017028785F76027F0112A1
:100BFE0023F3E4FDFF1222CF7BFF7A19792C122109
:100C0E00C5E4FD7F031222CF7BFF7A19793C1221B6
:100C1E00C57830E2640F702D7864F6785FE6D39471
:100C2E0001400476018004E4785FF6785FE6700395
:100C3E00787BF612199C787BE6B40109785FE6B4EE
:060C4E00010312223B220B
:03000300020026D2
:10002600C0E0C0F0C083C082C0D075D000C000C0A0
:1000360001C002C003C004C005C006C007121D7F70
:10004600787AEFF612007E787A76107F147E0012A8
:1000560022807596F0D007D006D005D004D003D004
:1000660002D001D000D0D0D082D083D0F0D0E03200
:07245C0075FFDE75FFAD22E4
:10237E00758E30758840758922758DF475C8047513
:06238E00CABF75CCBF229E
:0A242F0075BB0175E88C75BCFE2238
:0400760075D103221B
:1023940075D84075D90875DA4275DB4275DC42752B
:0623A400DD4275DE42225D
:072463007587807598502277
:1023BE0075A4FF75A54075A70E75E12C75E2047521
:0323CE00E34022C7
:10234B00E4FFFE75B1670FBF00010EBE0BF8BFB8FF
:09235B00F5E5B130E7FB75B20BAA
:012364002256
:0D24220075A89175B81175E70275F70222D3
:1023110012245C12237E12239412246312242F129E
:0E23210000761223BE1222F212234B02242257
:1017D80030313233343536373839002020574946CE
:1017E800492D4C4544CFB5CDB300B5F7B9E25B30D0
:1017F8005D20205B315DBCE0BFD800CDF8C2E75B5F
:10180800325D20205B335DCBB5C3F700202020205C
:10181800BAF4CEFC5B43445D206F6666002020204E
:1018280020BAF4CEFC5B43445D20206F6E00CEC22C
:10183800B6C8A3BA20202020202020204300C7EBD0
:10184800D1A1D4F1B9E2D4B420205B465D3E00C7F3
:10185800B0B5C65B345D20205B355DBAF3B5C60014
:10186800B5F7B0B55B365D20205B375DB5F7C1C114
:1018780000B5C62020C1C1B6C82020D7B4CCAC2042
:101888002000C7EBD1A1D4F1B9A6C4DC20205B4667
:101898005D3E005B435D20D0DEB8C4CDF8C2E7C32F
:1018A800FBB3C6005B445D20D0DEB8C4CDF8C2E708
:1018B800C3DCC2EB003E34CEBBD0C2CDF8C2E7C316
:1018C800FBB3C600B0CBCEBBD0C2CDF8C2E7C3DCF9
:1018D800C2EB002020D0DEB8C4D2D1BEADD6B4D081
:1018E800D0002020D6D8C1ACBDD3D2D4B2E9BFB481
:1018F800002020D0DEB8C4D5FDD4DAD6B4D0D02E9E
:101908002E00B5E7D1B9A3BA20202020202020201E
:101918006D5600B9A6C2CAA3BA20202020202020D4
:10192800206D5700C7EBCAE4C8EBCBC4CEBBC3DC01
:10193800C2EB3A00C8B7C8CF5B415D20205B425D6F
:10194800C7E5BFD50020202020CAE4C8EBB4EDCEFF
:10195800F300202020302D39D3C3D7F7CAE4C8EBD1
:10196800004120C8B7C8CF202020204220C7E5BFAB
:10197800D5004520CBF8B5C6202020204620B7B595
:10198800BBD800C6E4D3E0C7EBB0B4C6C1C4BBD66D
:04199800B8CABE000B
:0C2274005385BF5385DF8F867F287E00D6
:10228000E4FDFCC3ED9FEC9E5015E4FBFA0BBB0094
:0F229000010AEB640A4A70F50DBD00010C80E4F1
:01229F00221C
:1023F30053857F1222744385201222805385DF2266
:102403004385801222744385201222805385DF2264
:0422CB00E4FD7F01AE
:1022CF00EF70047F808016EFB401047F90800EEFD3
:1022DF00B402047F888006EFB403027F98EF2DFFCE
:0322EF000223F3D4
:1022F2004385107F301223F312227C7F0C1223F3CA
:0F23020012227C7F011223F37F287E00022280AB
:0921BC001222CF7BFF7A18797919
:0A21C50078AAEBF208EAF208E9F24A
:1021CF00E408F208F278AAE2FB08E2FA08E2F9085A
:1021DF00E2FE08E2F5828E831210A7FF6010122430
:0E21EF000378AEE22401F218E23400F280D749
:0121FD0022BF
:07209900783CEEF208EFF2C3
:1020A0007C007D641210E6A9077D037F031222CF16
:1020B000E99017D893FF122403783CE2FE08E2FF70
:1020C0007C007D641210E67E007F0ACFCDCFCECC9F
:1020D000CE1210E6A9077D047F031222CFE993FFF9
:1020E0001224037D057F031222CF7F2E1224037852
:1020F0003CE2FE08E2FF7C007D0A1210E6A9057DA5
:0C210000067F031222CFE993FF022403A4
:10223B007D017F031222CF7863E69017D89304FFBA
:10224B001224037D047F031222CFE6246FF8E65499
:10225B000F2430FF1224037D077F031222CF7863F4
:09226B00E62475F8E6FF022403E5
:10199C007F011223F3787BE670407F011223F3E47E
:1019AC00FDFF1222CF7BFF7A1779E31221C5122299
:1019BC00CB7BFF7A1779F21221C5E4FD7F0212224C
:1019CC00CF7BFF7A1879031221C5E4FD7F03122225
:1019DC00CF7BFF7A1879141221C5787BE6640170ED
:1019EC0038785FE664017031FDFF1222CF7BFF7AFD
:1019FC001879461221C51222CB7BFF7A187957121F
:101A0C0021C5E4FD7F021222CF7BFF7A1879681280
:101A1C0021C5E4FD7F031221BC787BE664027031A2
:101A2C00FDFF1221BC1222CB7BFF7A19790A1221FD
:101A3C00C5E4FD7F021222CF7BFF7A19791B12219C
:101A4C00C5E4FD7F031222CF7BFF7A187936122171
:101A5C00C5787BE664037063785FE6B4020EE4FD40
:101A6C00FF1222CF7BFF7A1879BD8012785FE6B423
:101A7C00031EE4FDFF1222CF7BFF7A1879CC1221D2
:101A8C00C5E4FD7F031222CF7BFF7A19793C8028B5
:101A9C00E4FDFF1222CF7BFF7A18798A1221C5123E
:101AAC0022CB7BFF7A18799B1221C5E4FD7F0212B1
:101ABC0022CF7BFF7A1879AC1221C5787BE66404BF
:101ACC00703AFDFF1222CF7BFF7A19795A1221C589
:101ADC001222CB7BFF7A1979691221C5E4FD7F02B2
:101AEC001222CF7BFF7A19797A1221C5E4FD7F038C
:0D1AFC001222CF7BFF7A19798B1221C522AF
:082439007F107E19DEFEDFFAC0
:012441002278
:082442007F927E19DEFEDFFA35
:01244A00226F
:08244B007F3D7E03DEFEDFFA97
:012453002266
:10232F00E4FC7D08C2B000D2B000ECC313FC30B0A7
:0B233F00034480FC122439DDEBAF04E6
:01234A002270
:0223AA00AD077D
:1023AC007C08C2B0EDC313FD92B0122439D2B0DC5C
:0123BC00F12F
:0123BD0022FD
:10236500D2B0122439C2B0122442D2B012244BA2E8
:08237500B0E433FD122442FF25
:01237D00223D
:101F1700E4783CF2F9FBFA081211550000000012B0
:101F27002365EF640160697FCC1223AA7F441223E3
:101F3700AA1223657FCC1223AA7FBE1223AA1223DB
:101F47002F783CEFF212232FA907AB07EBFAE2FF3A
:101F5700EFFBFDAC02E4120EF7E4FBFA7980783D63
:101F6700120D4C783D121149E4FFFE7D207C41782B
:101F77003DE2FB08E2F908E2FA08E2CBF8120D4C61
:101F8700E4FBFAF9783F120C5B120F30AA06AB0795
:081F97008A0C8B0DAE02AF03B2
:011F9F00221F
:10201E002B2B2B0061002C4348310A000A0041543F
:10202E002B5A0A0041542B5741503D313142474EF5
:10203E002C00000000000000000000000000000066
:10204E000000000000000000000000000000000082
:10205E000041542B57414B45593D57504132505337
:10206E004B2C4145532C00000000000000000000E6
:10207E0000000000000000000000000000004154BD
:0B208E002B574D4F44453D41500A00C8
:08222C00015E00012100C10167
:1023E2007FD97EE17DE1DDFEDEFADFF67F0ADFFEE8
:0123F20022C8
:0A22A00078AAEBF208EAF208E9F26E
:1022AA00E4FF78AAE2FB08E2FA08E2F98F82758372
:1022BA00001210A7600AF5993099FDC2990F80E2C1
:0122CA0022F1
:082454008F993099FDC2992215
:101C5E0078437C007DFE7BFF7A2079327E007F2DDB
:101C6E0012108178707C007DFE7BFF7A20795F7E7A
:101C7E00007F2D121081789D7C007DFE7BFF7A20E7
:101C8E00798C7E007F0D1210817BFF7A20791E12D7
:101C9E0022A01223E27BFF7A2079221222A01223A5
:101CAE00E27BFE7A00799D1222A01223E27821E6D1
:101CBE00B4013478ADE4F2087400F208744AF27B91
:101CCE00FE7A00794312210C78AD74FFF20874206D
:101CDE00F2087424F27BFE7A00794312210C7BFE0B
:101CEE007A0079431222A07821E6B4023478ADE46A
:101CFE00F2087400F2087436F27BFE7A00797012E4
:101D0E00210C78AD74FFF2087420F208742AF27B6D
:101D1E00FE7A00797012210C7BFE7A007970122205
:101D2E00A01223E27BFF7A20792C1222A01223E24A
:101D3E00E47821F67F011223F3E4FD7F011222CF16
:101D4E007BFF7A1879DB1221C5E4FD7F021222CFC8
:101D5E007BFF7A1879EA1221C57F507EC31222804A
:101D6E007F507EC31222807F507EC31222800219C2
:011D7E009CC8
:03002300021B09B4
:101B0900C0E0C0F0C083C082C0D075D000C000C0A2
:0D1B190001C002C003C004C005C006C00723
:101B2600309815C298785EE6B415027600785EE6BF
:101B36002422F8A699785E067822E66401703F783A
:101B46005EE6640270387823E6FF121FA07823E66B
:101B5600FFC4540FFEEF540FFFEE147863F6E6242D
:101B66006FF8A607787BE6B40110785FE6B4010A41
:101B7600E4FD7F031222CF12223B785E76007822A4
:101B8600E66402704D785EE6641570467836F27843
:101B960036E2FFC39414501774232FF8E6FF600F44
:101BA6007836E2244AF8A6077836E204F280E0782E
:101BB600217601785E76007F011223F3E4FDFF12A1
:101BC60022CF7BFF7A1879F91221C57F507EC31286
:101BD60022807822E66403704D785EE664157046CE
:101BE6007836F27836E2FFC39414501774232FF830
:101BF600E6FF600F7836E22436F8A6077836E20468
:101C0600F280E078217602785E76007F011223F377
:101C1600E4FDFF1222CF7BFF7A1879F91221C57FE6
:101C2600507EC31222807822E6FFB40406D20178E1
:0D1C36005E7600EFB40506C201785E760010
:101C4300D007D006D005D004D003D002D001D000F5
:0B1C5300D0D0D082D083D0F0D0E0329F
:101FA000EFC4540FFDEF540FFF7026ED24FE6011B7
:101FB0001460121460131460142404706053DABFA8
:101FC0002253DBBF2253DCBF2253DDBF2253DEBFCF
:101FD00022EF24FE600E14600F1460102403700EB4
:101FE0007EF3800A7EC080067E668002E4FEED24D9
:101FF000FE601314601614601914601C2404701D14
:102000008EFA43DA40228EFB43DB40228EFC43DC17
:0D20100040228EFD43DD40228EFE43DE4067
:01201D0022A0
:06223400812B0001136480
:03007B0002153437
:10153400C0E0C0F0C083C082C0D075D000C000C07D
:0D15440001C002C003C004C005C006C007FE
:10155100C2ED1513E51360030217BD751364C2EFE5
:101561007F14FE122280782BE204F5BBAFBFEFADF2
:10157100BEFCE4120EF78F118E108D0F8C0E7B00C6
:101581007AF0797F7845120E557B007AE0791778E9
:1015910045120D4C8F118E108D0F8C0EE4FFFEFD48
:1015A1007C40AB11AA10A90FA80E120D4C120F30DE
:1015B100782BE2FD25E0241EF8EEF208EFF2ED258E
:1015C100E0241EF8E2FE08E2FFC374209FFF740DC1
:1015D1009EFE7C007D111210E6782BE2FE2405F8B8
:1015E100EFF274052EF8E2FF7E00782BE2FB25E096
:1015F100241EF8E2FC08E2FD1210D47C007D641286
:1016010010E6E4FCFDEB25E025E0240AF81211497F
:101611007863E625E0241EF8E2FA08E2FB7C037D0C
:10162100E8FFAE021210E6782CEFF27C007D64AF89
:1016310003AE021210E67C007D0A1210E6782DED51
:10164100F27863E625E0241EF8E2FA08E2FB7C006A
:101651007D0AFFAE021210E67C007D0A1210E678C8
:101661002EEDF27C007D0AAF03AE021210E6782F58
:10167100EDF27863E625E025E0240AF8E2FC08E2D1
:10168100FD08E2FE08E2FFE47B64FAF9F812217832
:10169100E47B0AFAF9F81221787828EBF27863E60C
:1016A10025E025E0240AF8E2FC08E2FD08E2FE0854
:1016B100E2FFE47B0AFAF9F8122178E47B0AFAF9ED
:1016C100F81221787829EBF27863E625E025E02409
:1016D1000AF8E2FC08E2FD08E2FE08E2FFE47B0A08
:1016E100FAF9F8122178782AEBF208E22401FFE4F2
:1016F10033FE7C007D051210E6782BEDF2787BE657
:10170100640260030217B4785FE6640160030217A4
:10171100B4F512121F171220990512E512C3940A8B
:1017210040F17F507E001222807D037F011222CF83
:10173100782CE29017D893FF1224037D047F0112C5
:1017410022CF782DE29017D893FF1224037D057FD5
:10175100011222CF782EE29017D893FF1224037D35
:10176100067F011222CF782FE29017D893FF12241F
:10177100037D037F021222CF7828E29017D893FFCE
:101781001224037D047F021222CF7829E29017D818
:1017910093FF1224037D057F021222CF7F2E122494
:1017A100037D067F021222CF782AE29017D893FF99
:0C17B100122403D2EF121F178E0C8F0DB4
:1017BD00D007D006D005D004D003D002D001D00080
:0B17CD00D0D0D082D083D0F0D0E0322A
:100C5400020F9CE86480F8E933E83360110460F023
:100C6400ED33EC337009E8FCE9FDEAFEEBFF220406
:100C740060DED3EB9FEA9EE99DE8C2E78CF0C2F701
:100C840095F0400CE8CCF8E9CDF9EACEFAEBCFFBCD
:100C9400120F6785D0F05804700320D5B3E80470B0
:100CA400075002B2D5020FA692D5EC0460F7E4CC4B
:100CB400C0E0C398F8603B94186008400DD0E0FB96
:100CC400020F7EE4FBFAC9FC8028E830E406E4C99C
:100CD400FBE4CAFCE830E305E4C9CACBFCE85407EA
:100CE4006010F8C3E913F9EA13FAEB13FBEC13FCF5
:100CF400D8F130F52FC3E49CFCEF9BFFEE9AFEED98
:100D040099FDD0E0FBEF4E4D4C701222DB03020F35
:100D1400A3EC2CFCEF33FFEE33FEED33FDED30E7B7
:100D2400EB020F7EEF2BFFEE3AFEED39FDD0E0FB38
:100D340050130BBB0003020FA6ED13FDEE13FEEFE1
:080D440013FFEC13FC020F7E0B
:100D4C00EC4D6011E8497017ED33EC3304600DE4A1
:100D5C00FCFFFEFD22E933E8330470F8020F9C120D
:100D6C000F6758046009E4CC24815006285009020E
:100D7C000FA6284003020FA3C0E0EB4A7044B980D1
:100D8C0006D0E0FB020F92EF4E701CBD8008EBFF0B
:100D9C00EAFEE9FD80EBE98DF0A4FEE5F0020E35EC
:100DAC00E9CDF9EAFEEBFFEF89F0A4FCE5F0CE8982
:100DBC00F0A42EFFE435F0CD89F0A42DFEE435F03F
:100DCC008067EF4E7005BD80D780C3EF8BF0A4AC6D
:100DDC00F0EE8BF0A42CFCE435F0F8EF8AF0A42CA8
:100DEC00E5F038FCE433CB8DF0A42CFCE5F03BF8BB
:100DFC00EE8AF0A42CFCE5F038F8E433CF89F0A4AB
:100E0C002CFCE5F038CF3400CE89F0A42FFFE5F0B0
:100E1C003EFEE433C98DF0A42EFEE5F039CD8AF008
:100E2C00A42FFFE5F03EFEE43DFD33D0E0FB500780
:100E3C000BBB000F020FA6EC2CFCEF33FFEE33FEC6
:060E4C00ED33FD020F7EF4
:100E5200020FA6EC5D046005E859047003020F9CC2
:100E6200120F67580460F6EC4860F2EC7004FDFE65
:100E7200FF22C860DB2481C85009C3986002500673
:100E8200020FA39850CAF582E9294B4A7005AB823A
:100E9200020F9275F0007C1A7880C3EF9BEE9AEDF8
:100EA20099400DC3EF9BFFEE9AFEED99FDE842F0EB
:100EB200DC23ACF0D0E0FFD0E0FED0E0FDAB82203E
:100EC200E7101BEB60BAEC2CFCEF33FFEE33FEEDC8
:100ED20033FD020F7EE803F830E705C0F075F0003D
:100EE200EF2FFFEE33FEED33FD40B830E7C280AAAC
:100EF20075F020800E75F010800575F0087D007E7B
:100F0200007F003392D530D50312113BEC334010F1
:100F1200EF33FFEE33FEED33FDEC33FCD5F0ED2283
:0E0F2200E5F0247EA2D513CC92E7CDCEFF22BF
:100F3000EDD2E7CD33EC3392D524814006E4FFFEB9
:100F4000FDFC22FCE4CFCECDCC24E0501174FF8018
:100F5000EDC3CC13CCCD13CDCE13CECF13CF0470B5
:070F6000F030D5DE02113B69
:100F6700E9D2E7C933E833F892D5EDD2E7CD33ECD0
:070F770033FC5002B2D52249
:100F7E00EC30E7100FBF000C0EBE00080DBD0004D4
:100F8E000BEB6014A2D5EB13FCED92E7FD2274FF80
:100F9E00FCFDFEFF22E480F8A2D574FF13FC7D80D9
:030FAE00E480EFED
:03000000021E8B52
:0C1E8B00787FE4F6D8FD75817B021ED242
:100FB100E709F608DFFA8046E709F208DFFA803E22
:100FC10088828C83E709F0A3DFFA8032E309F6080F
:100FD100DFFA8078E309F208DFFA807088828C8377
:100FE100E309F0A3DFFA806489828A83E0A3F6082B
:100FF100DFFA805889828A83E0A3F208DFFA804C05
:1010010080D280FA80C680D4806980F280338010DB
:1010110080A680EA809A80A880DA80E280CA803344
:1010210089828A83ECFAE493A3C8C582C8CCC583BC
:10103100CCF0A3C8C582C8CCC583CCDFE9DEE7808C
:101041000D89828A83E493A3F608DFF9ECFAA9F00B
:10105100EDFB2289828A83ECFAE0A3C8C582C8CC61
:10106100C583CCF0A3C8C582C8CCC583CCDFEADE7A
:10107100E880DB89828A83E493A3F208DFF980CCDC
:1010810088F0EF60010E4E60C388F0ED2402B404D5
:101091000050B9F582EB2402B4040050AF2323457C
:0610A10082239010017390
:1010A700BB010CE58229F582E5833AF583E02250FE
:1010B70006E92582F8E622BBFE06E92582F8E22248
:0D10C700E58229F582E5833AF583E4932262
:1010D400EF8DF0A4A8F0CF8CF0A428CE8DF0A42E30
:0210E400FE22EA
:1010E600BC000BBE0029EF8DF084FFADF022E4CCEE
:1010F600F875F008EF2FFFEE33FEEC33FCEE9DECB7
:10110600984005FCEE9DFE0FD5F0E9E4CEFD22EDFC
:10111600F8F5F0EE8420D21CFEADF075F008EF2F46
:10112600FFED33FD4007985006D5F0F222C398FD37
:051136000FD5F0EA22D4
:10217800C2D5E830E70FB2D5E4C39BFBE49AFAE492
:1021880099F9E498F8EC30E717B2D51221AE12119C
:10219800D5E4C39BFBE49AFAE499F9E498F8800340
:1021A8001211D530D50DE4C39FFFE49EFEE49DFDDA
:0421B800E49CFC2285
:0E113B00C3E49FFFE49EFEE49DFDE49CFC22C5
:0C114900ECF208EDF208EEF208EFF222E2
:10115500D083D082E493F208740193F20874029369
:09116500F208740393F2740473A0
:10210C0078AAEBF208EAF208E9F278B0EBF208EA06
:10211C00F208E9F278AAE2FB0808E2F92401F218C5
:10212C00E2FA3400F212116E70EA78ACE224FFF29B
:10213C0018E234FFF278ADE2FB0808E2F92401F270
:10214C0018E2FA3400F212116EFF78AAE2FB0808CA
:10215C00E2F92401F218E2FA3400F2EF121187705E
:0C216C00D478B0E2FB08E2FA08E2F922A5
:101E9700021267E493A3F8E493A34003F68001F2E8
:101EA70008DFF48029E493A3F85407240CC8C3334C
:101EB700C4540F4420C8834004F456800146F6DF1B
:101EC700E4800B01020408102040809021FEE47E8C
:101ED700019360BCA3FF543F30E509541FFEE49310
:101EE700A360010ECF54C025E060A840B8E493A3D7
:101EF700FAE493A3F8E493A3C8C582C8CAC583CA02
:101F0700F0A3C8C582C8CAC583CADFE9DEE780BEB9
:01223A0000A3
:10116E00BB010689828A83E0225002E722BBFE027F
:09117E00E32289828A83E49322B2
:10118700BB010689828A83F0225002F722BBFE0147
:02119700F32241
:1011990075F008758200EF2FFFEE33FECD33CDCC0D
:1011A90033CCC58233C5829BED9AEC99E582984090
:1011B9000CF582EE9BFEED9AFDEC99FC0FD5F0D66D
:1011C900E4CEFBE4CDFAE4CCF9A88222B800C1B997
:1011D9000059BA002DEC8BF084CFCECDFCE5F0CBD5
:1011E900F97818EF2FFFEE33FEED33FDEC33FCEB0E
:1011F90033FB10D703994004EB99FB0FD8E5E4F9C9
:10120900FA227818EF2FFFEE33FEED33FDEC33FCB5
:10121900C933C910D7059BE99A4007EC9BFCE99AA9
:10122900F90FD8E0E4C9FAE4CCFB2275F010EF2FEE
:10123900FFEE33FEED33FDCC33CCC833C810D707EE
:101249009BEC9AE899400AED9BFDEC9AFCE899F829
:0E1259000FD5F0DAE4CDFBE4CCFAE4C8F922BC
:00000001FF
